:1000000029C0000043C0000041C000003FC0000004
:100010003DC000003BC0000039C0000037C00000F8
:1000200035C0000033C0000031C000002FC0000008
:100030002DC000002BC0000029C0000027C0000018
:1000400025C0000023C0000021C000001FC0000028
:100050001DC0000011241FBECFE5D4E0DEBFCDBF20
:1000600010E0A0E6B0E0E8EAF1E102C005900D92F0
:10007000A037B107D9F722E0A0E7B0E001C01D9298
:10008000AA37B207E1F703D00C94D208B9CFCF93C7
:10009000DF93CDB7DEB72A970FB6F894DEBF0FBE59
:1000A000CDBF63D08D9A8C9A8AE0E6E6F0E0DE015F
:1000B000119601900D928A95E1F7CE0101969DD09F
:1000C000892B09F450C0CE010196A6D0892B09F4E2
:1000D00048C086E190E010D77C01892B09F43FC02D
:1000E00087E090E009D78C01892BB9F187E0FE0108
:1000F0003496D80101900D928A95E1F7011511050A
:1001000051F1979A73D0A80167E070E0C7018ED0D3
:10011000C701B9D02FEF34E34CE0215030404040CC
:10012000E1F700C00000959A2FEF34E34CE0215036
:1001300030404040E1F700C000009598009741F33F
:100140008130910531F08F3F910509F0FFCF959AED
:10015000FDCF33D0FBCF0BD0D4CF09D0C7CF07D042
:10016000BFCF18D0B6CF16D0AECF8F9A089590E0FB
:1001700080E00CC0979A21E082273FE748E321E026
:10018000315040402040E1F700C00000009791F757
:100190009798F1CF90E080E00CC0979A21E08227F9
:1001A0003FEF44E32CE0315040402040E1F700C0F5
:1001B0000000009791F79798F1CF90E080E00CC095
:1001C000979A21E082273FEF49E628E131504040ED
:1001D0002040E1F700C00000009791F79798F1CF19
:1001E0008DD090E0AAD790E080E0089580EF90E075
:1001F00090936D0280936C020895FC018081853597
:1002000019F080E090E0089521E090E08181873549
:1002100009F020E0822F089521E030E0FC01828186
:10022000813011F030E020E0C9010895EF92FF9293
:100230000F931F93CF93DF93EC017B018A0181D44D
:10024000198218821A821B821C821D821A861B86C2
:100250001C861D861E861F86188A198A1A8A1B8A82
:10026000FF82EE821987088782E190E045D6FC0183
:10027000118210829D8B8C8BDF91CF911F910F91FA
:10028000FF90EF900895DC018D919C911197169647
:100290002D913C9117978217930769F12817390719
:1002A00038F112964D915D916D917C9115974F5F4C
:1002B0005F4F6F4F7F4F12964D935D936D937C937D
:1002C00015971896ED91FC911997E80FF91FE081A9
:1002D000019611969C938E93F0E0EE0FFF1FE0596C
:1002E000FF4F0190F081E02D309711F0CD0109947E
:1002F00081E090E008958FEF90E00895FC01208167
:100300003181A085B185A20FB31F8C912F5F3F4F24
:1003100031832083089590E080E00895FC012285D8
:10032000238790E080E00895FC012285248790E0F7
:1003300080E00895FC012285258790E080E0089503
:10034000FC012285268790E080E00895FC0122854B
:10035000278790E080E00895FC012285208B90E0C3
:1003600080E00895FC012285218B90E080E00895D3
:10037000FC012385228790E080E00895FC0124851C
:10038000228790E080E00895FC012585228790E097
:1003900080E00895FC012685228790E080E00895A2
:1003A000FC012785228790E080E00895FC012089E8
:1003B000228790E080E00895FC012189228790E067
:1003C00080E00895FC01458550E0228530E0421729
:1003D000530769F0128A2417350724F0138A90E036
:1003E00080E0089581E0838B90E080E0089581E0D3
:1003F000828B90E080E00895FC01468550E02285E4
:1004000030E04217530769F0128A2417350724F0A9
:10041000138A90E080E0089581E0838B90E080E093
:10042000089581E0828B90E080E00895FC0147858B
:1004300050E0228530E04217530769F0128A2417F2
:10044000350724F0138A90E080E0089581E0838BE3
:1004500090E080E0089581E0828B90E080E0089554
:10046000FC01408950E0228530E04217530769F0D3
:10047000128A2417350724F0138A90E080E008954B
:1004800081E0838B90E080E0089581E0828B90E0B2
:1004900080E00895FC01418950E0228530E0421758
:1004A000530769F0128A2417350724F0138A90E065
:1004B00080E0089581E0838B90E080E0089581E002
:1004C000828B90E080E00895FC0192859F5F928787
:1004D00090E080E00895FC0193859F5F938790E012
:1004E00080E00895FC0194859F5F948790E080E010
:1004F0000895FC0195859F5F958790E080E00895C1
:10050000FC0196859F5F968790E080E00895FC014E
:1005100097859F5F978790E080E00895FC01908920
:100520009F5F908B90E080E00895FC0191899F5F30
:10053000918B90E080E00895FC0192859150928724
:1005400090E080E00895FC0193859150938790E0BE
:1005500080E00895FC0194859150948790E080E0BC
:100560000895FC0195859150958790E080E008956D
:10057000FC0196859150968790E080E00895FC01FB
:1005800097859150978790E080E00895FC019089CD
:100590009150908B90E080E00895FC0191899150FA
:1005A000918B90E080E008958FEF90E00895CF93D5
:1005B000DF93EC01A3DE9A85890F8A8790E080E0C3
:1005C000DF91CF910895CF93DF93EC0197DE9A8569
:1005D000981B9A8790E080E0DF91CF910895CF93A8
:1005E000DF93EC018BDE9A85989F802D11248A87FA
:1005F00090E080E0DF91CF910895CF93DF93EC01FD
:100600007DDE682F8A856CD48A8790E080E0DF9158
:10061000CF910895CF93DF93EC0170DE8A8790E04D
:1006200080E0DF91CF910895CF93DF93EC0166DEF8
:100630008B8790E080E0DF91CF910895CF93DF9397
:10064000EC015CDE8C8790E080E0DF91CF91089533
:10065000CF93DF93EC0152DE8D8790E080E0DF9155
:10066000CF910895CF93DF93EC0148DE8E8790E021
:1006700080E0DF91CF910895CF93DF93EC013EDED0
:100680008F8790E080E0DF91CF910895CF93DF9343
:10069000EC0134DE888B90E080E0DF91CF9108950B
:1006A000CF93DF93EC012ADE898B90E080E0DF912D
:1006B000CF910895CF93DF93EC0120DEE82FF0E097
:1006C000EE0FFF1FE059FF4F80819181892B39F098
:1006D00081E08A8B90E080E0DF91CF9108951A8AC3
:1006E00090E080E0DF91CF9108950F931F93CF9317
:1006F000DF938C0103DEC82FD0E0C801FFDD90E05E
:10070000C817D907B1F0F801128A8C179D0744F079
:10071000138A90E080E0DF91CF911F910F910895AF
:1007200081E0838B90E080E0DF91CF911F910F916A
:10073000089581E0F801828B90E080E0DF91CF9115
:100740001F910F9108950F931F93CF93DF938C0107
:10075000FC01C285D0E0D2DD90E0C817D907B1F026
:10076000F801128A8C179D0744F0138A90E080E00C
:10077000DF91CF911F910F91089581E0838B90E0DD
:1007800080E0DF91CF911F910F91089581E0F801F2
:10079000828B90E080E0DF91CF911F910F910895BF
:1007A0000F931F93CF93DF938C01FC01C585D0E09D
:1007B000A5DD90E0C817D907B1F0F801128A8C17AF
:1007C0009D0744F0138A90E080E0DF91CF911F9164
:1007D0000F91089581E0838B90E080E0DF91CF91CD
:1007E0001F910F91089581E0F801828B90E080E0E5
:1007F000DF91CF911F910F9108950F931F93CF9386
:10080000DF938C01FC01C685D0E078DD90E0C8174D
:10081000D907B1F0F801128A8C179D0744F0138AAA
:1008200090E080E0DF91CF911F910F91089581E0DA
:10083000838B90E080E0DF91CF911F910F9108951D
:1008400081E0F801828B90E080E0DF91CF911F91F1
:100850000F9108950F931F93CF93DF938C01FC01A9
:10086000C785D0E04BDD90E0C817D907B1F0F8019B
:10087000128A8C179D0744F0138A90E080E0DF9184
:10088000CF911F910F91089581E0838B90E080E0DC
:10089000DF91CF911F910F91089581E0F801828B34
:1008A00090E080E0DF91CF911F910F9108950F9319
:1008B0001F93CF93DF938C01FC01C089D0E01EDD34
:1008C00090E0C817D907B1F0F801128A8C179D077C
:1008D00044F0138A90E080E0DF91CF911F910F9157
:1008E000089581E0838B90E080E0DF91CF911F91AC
:1008F0000F91089581E0F801828B90E080E0DF9114
:10090000CF911F910F9108950F931F93CF93DF9372
:100910008C01FC01C189D0E0F1DC90E0C817D90757
:10092000B1F0F801128A8C179D0744F0138A90E009
:1009300080E0DF91CF911F910F91089581E0838B2B
:1009400090E080E0DF91CF911F910F91089581E0B9
:10095000F801828B90E080E0DF91CF911F910F91A1
:100960000895FC01628570E087C2FC01638570E038
:1009700083C2FC01648570E07FC2FC01658570E084
:100980007BC2FC01668570E077C2FC01678570E080
:1009900073C2FC01608970E06FC2FC01618970E084
:1009A0006BC2BC01665F7F4F7EC2BC01655F7F4F3B
:1009B0007AC2BC01645F7F4F76C2BC01635F7F4F28
:1009C00072C2BC01625F7F4F6EC2BC01615F7F4F2C
:1009D0006AC2BC01605F7F4F66C2BC016F5E7F4F21
:1009E00062C20F931F93CF938C0188DCC82FC8017C
:1009F00085DC2C2F30E0322F2227820F932F911D80
:100A0000F8019183808390E080E0CF911F910F9156
:100A100008951F93CF93DF93EC018B89882359F0BE
:100A20008881998102969983888390E080E0DF91A4
:100A3000CF911F910895CE0161DC182FCE015EDCAD
:100A4000212F30E0322F2227820F932F911D99837F
:100A5000888390E080E0DF91CF911F9108951F93EC
:100A6000CF93DF93EC018A89882359F0888199819B
:100A700002969983888390E080E0DF91CF911F9167
:100A80000895CE013BDC182FCE0138DC212F30E059
:100A9000322F2227820F932F911D9983888390E014
:100AA00080E0DF91CF911F9108951F93CF93DF9343
:100AB000EC018A89813059F0888199810296998365
:100AC000888390E080E0DF91CF911F910895CE015F
:100AD00015DC182FCE0112DC212F30E0322F222717
:100AE000820F932F911D9983888390E080E0DF919E
:100AF000CF911F9108951F93CF93DF93EC018B89C2
:100B0000813059F08881998102969983888390E099
:100B100080E0DF91CF911F910895CE01EFDB182F78
:100B2000CE01ECDB212F30E0322F2227820F932FD2
:100B3000911D9983888390E080E0DF91CF911F9190
:100B40000895E0E7F0E08BE891E09183808327ED62
:100B500032E03383228323EE32E0358324832FEE89
:100B600032E0378326832DEF32E0318720872AE079
:100B700033E03387228724E133E0358724872EE171
:100B800033E03787268728E233E0318B208B22E35E
:100B900033E0338B228B2CE333E0358B248B26E43C
:100BA00033E0378B268B20E533E0318F208F2EE822
:100BB00031E0338F228F24E931E0358F248F2AE909
:100BC00031E0378F268F20EA31E031A320A326EAD7
:100BD00031E033A322A32CEA31E035A324A322EB96
:100BE00031E037A326A328EB31E031A720A72EEB75
:100BF00031E033A722A724EC31E035A724A72AEC63
:100C000031E037A726A720ED31E031AB20AB26ED50
:100C100031E033AB22AB2CED31E035AB24AB21EF2F
:100C200034E037AB26AB25E535E031AF20AF2FE21E
:100C300035E033AF22AF2BE735E035AF24AF29E005
:100C400035E037AF26AF25E733E03093B10020938E
:100C5000B00023EA33E03093B3002093B20020EDDC
:100C600033E03093B5002093B4002DEF33E03093A0
:100C7000B7002093B6002AE234E03093B900209305
:100C8000B80027E534E03093BB002093BA0024E895
:100C900034E03093BD002093BC0022EE31E030936D
:100CA000BF002093BE002CEF31E03093C1002093B1
:100CB000C00026E132E03093C3002093C20020E35D
:100CC00032E03093C5002093C4002AE432E0309330
:100CD000C7002093C60024E632E03093C900209379
:100CE000C8002BE632E03093CB002093CA0022E705
:100CF00032E03093CD002093CC0029E732E03093EE
:100D0000CF002093CE0020E832E03093D100209332
:100D1000D00027E832E03093D3002093D2002EE8B1
:100D200032E03093D5002093D40025E932E03093AF
:100D3000D7002093D6002CE932E03093D9002093DD
:100D4000D80023EA32E03093DB002093DA002AEA6D
:100D500032E03093DD002093DC0021EB32E0309371
:100D6000DF002093DE0028EB32E03093E100209397
:100D7000E0002FEB32E03093E3002093E20026EC1A
:100D800032E03093E5002093E4002DEC32E0309324
:100D9000E7002093E6002AE533E03093E900209352
:100DA000E8009093EB008093EA0081EB94E090934D
:100DB000ED008093EC0085EB94E09093EF0080933E
:100DC000EE0089EB94E09093F1008093F0008DEBBE
:100DD00094E09093F3008093F20081EC94E0909380
:100DE000F5008093F40085EC94E09093F7008093F5
:100DF000F60089EC94E09093F9008093F8008DEC74
:100E000094E09093FB008093FA0081ED94E090933E
:100E1000FD008093FC0085ED94E09093FF008093AB
:100E2000FE0089ED94E090930101809300018DED27
:100E300094E0909303018093020181EE94E09093FB
:100E400005018093040185EE94E09093070180935F
:100E5000060189EE94E090930901809308018DEEDC
:100E600094E090930B0180930A0184ED92E09093BB
:100E70006F0280936E020895DC015496ED91FC910F
:100E8000808191818031910559F0DF01A80FB91F50
:100E900012966C9301969183808390E080E0089590
:100EA00081E090E00895DC015496ED91FC91559716
:100EB000208131812115310581F0E20FF31F22815C
:100EC000FB0120835496ED91FC91808191810197E3
:100ED0009183808390E080E0089581E090E0089520
:100EE000991B79E004C0991F961708F0961B881F7C
:100EF0007A95C9F7809508950F931F93CF93DF9349
:100F00008230910510F482E090E0E0917202F0915D
:100F1000730220E030E0A0E0B0E0309719F14081AA
:100F200051810281138148175907C8F0841795072A
:100F300069F4109731F012960C93129713961C9344
:100F400027C0009372021093730222C0211531054D
:100F500019F04217530718F49A01BD01EF01DF01A0
:100F6000F801DBCF21153105F9F0281B390B2430AE
:100F7000310580F48A819B816115710521F0FB01A7
:100F80009383828304C09093730280937202FE0164
:100F9000329644C0FE01E20FF31F819391932250D9
:100FA0003109398328833AC020917002309171024F
:100FB000232B41F420916200309163003093710241
:100FC000209370022091600030916100211531055D
:100FD00041F42DB73EB74091640050916500241B49
:100FE000350BE0917002F0917102E217F307A0F463
:100FF0002E1B3F0B2817390778F0AC014E5F5F4F6F
:101000002417350748F04E0F5F1F5093710240932D
:1010100070028193919302C0E0E0F0E0CF01DF9194
:10102000CF911F910F910895CF93DF93009709F40B
:1010300081C0FC01329713821282A0917202B0919A
:101040007302109781F420813181820F931F2091C8
:101050007002309171022817390751F5F09371022F
:10106000E093700267C0ED0120E030E0CE17DF07AB
:1010700040F44A815B819E0141155105F1F0EA017E
:10108000F5CFD383C28340815181840F951FC81748
:10109000D90759F488819981840F951F029691830D
:1010A00080838A819B81938382832115310529F472
:1010B000F0937302E09372023DC0E901FB83EA837F
:1010C00049915991C40FD51FEC17FD0761F4808138
:1010D0009181840F951F0296E9019983888382810B
:1010E00093819B838A83E0E0F0E012968D919C913E
:1010F0001397009719F0FD01DC01F7CF8D919C91BA
:1011000011979D012E5F3F4F820F931F2091700218
:10111000309171022817390769F4309729F4109239
:1011200073021092720202C013821282B093710293
:10113000A0937002DF91CF91089560917602709133
:10114000770200C00F931F93CF93DF93182F092FBF
:10115000EB018B8181FD03C08FEF9FEF1EC082FFEB
:101160000FC02E813F818C819D812817390774F42F
:10117000E881F981CF01019699838883108306C0A5
:10118000E885F985812F0995892B31F78E819F811B
:1011900001969F838E83812F902FDF91CF911F9196
:0811A0000F910895F894FFCFB0
:1011A80000007A0220005557010000000000FAFFF5
:00000001FF
